{
  "contractName": "FarmProductTracking",
  "abi": [
    {
      "anonymous": false,
      "inputs": [
        {
          "indexed": false,
          "internalType": "address",
          "name": "newStakeholder",
          "type": "address"
        }
      ],
      "name": "PreviousStakeholderUpdated",
      "type": "event"
    },
    {
      "anonymous": false,
      "inputs": [
        {
          "indexed": false,
          "internalType": "uint256",
          "name": "productId",
          "type": "uint256"
        },
        {
          "indexed": false,
          "internalType": "string",
          "name": "name",
          "type": "string"
        },
        {
          "indexed": false,
          "internalType": "string",
          "name": "description",
          "type": "string"
        },
        {
          "indexed": false,
          "internalType": "uint256",
          "name": "price",
          "type": "uint256"
        },
        {
          "indexed": false,
          "internalType": "uint256",
          "name": "weight",
          "type": "uint256"
        },
        {
          "indexed": false,
          "internalType": "string",
          "name": "category",
          "type": "string"
        },
        {
          "indexed": false,
          "internalType": "string",
          "name": "subCategory",
          "type": "string"
        },
        {
          "indexed": false,
          "internalType": "address",
          "name": "owner",
          "type": "address"
        }
      ],
      "name": "ProductAdded",
      "type": "event"
    },
    {
      "anonymous": false,
      "inputs": [
        {
          "indexed": false,
          "internalType": "uint256",
          "name": "productId",
          "type": "uint256"
        },
        {
          "indexed": false,
          "internalType": "address",
          "name": "buyer",
          "type": "address"
        },
        {
          "indexed": false,
          "internalType": "address",
          "name": "seller",
          "type": "address"
        },
        {
          "indexed": false,
          "internalType": "uint256",
          "name": "price",
          "type": "uint256"
        }
      ],
      "name": "ProductBought",
      "type": "event"
    },
    {
      "inputs": [],
      "name": "productCount",
      "outputs": [
        {
          "internalType": "uint256",
          "name": "",
          "type": "uint256"
        }
      ],
      "stateMutability": "view",
      "type": "function"
    },
    {
      "inputs": [
        {
          "internalType": "uint256",
          "name": "",
          "type": "uint256"
        }
      ],
      "name": "products",
      "outputs": [
        {
          "internalType": "uint256",
          "name": "productId",
          "type": "uint256"
        },
        {
          "internalType": "string",
          "name": "name",
          "type": "string"
        },
        {
          "internalType": "string",
          "name": "description",
          "type": "string"
        },
        {
          "internalType": "uint256",
          "name": "price",
          "type": "uint256"
        },
        {
          "internalType": "uint256",
          "name": "weight",
          "type": "uint256"
        },
        {
          "internalType": "string",
          "name": "category",
          "type": "string"
        },
        {
          "internalType": "string",
          "name": "subCategory",
          "type": "string"
        },
        {
          "internalType": "address",
          "name": "owner",
          "type": "address"
        }
      ],
      "stateMutability": "view",
      "type": "function"
    },
    {
      "inputs": [
        {
          "internalType": "string",
          "name": "_name",
          "type": "string"
        },
        {
          "internalType": "string",
          "name": "_description",
          "type": "string"
        },
        {
          "internalType": "uint256",
          "name": "_price",
          "type": "uint256"
        },
        {
          "internalType": "uint256",
          "name": "_weight",
          "type": "uint256"
        },
        {
          "internalType": "string",
          "name": "_category",
          "type": "string"
        },
        {
          "internalType": "string",
          "name": "_subCategory",
          "type": "string"
        },
        {
          "internalType": "address",
          "name": "_owner",
          "type": "address"
        }
      ],
      "name": "addProduct",
      "outputs": [],
      "stateMutability": "nonpayable",
      "type": "function"
    },
    {
      "inputs": [
        {
          "internalType": "address",
          "name": "_newStakeholder",
          "type": "address"
        }
      ],
      "name": "updatePreviousStakeholder",
      "outputs": [],
      "stateMutability": "nonpayable",
      "type": "function"
    },
    {
      "inputs": [
        {
          "internalType": "uint256",
          "name": "_productId",
          "type": "uint256"
        }
      ],
      "name": "buyProduct",
      "outputs": [],
      "stateMutability": "payable",
      "type": "function"
    }
  ],
  "bytecode": "0x608060405234801561001057600080fd5b5061147b806100206000396000f3fe60806040526004361061004a5760003560e01c806330c7985f1461004f5780637acc0b20146100785780638642269e146100bc578063d1958af9146100d8578063e0f6ef8714610101575b600080fd5b34801561005b57600080fd5b50610076600480360381019061007191906109ce565b61012c565b005b34801561008457600080fd5b5061009f600480360381019061009a9190610a31565b610207565b6040516100b3989796959493929190610b0c565b60405180910390f35b6100d660048036038101906100d19190610a31565b61048f565b005b3480156100e457600080fd5b506100ff60048036038101906100fa9190610cdb565b610785565b005b34801561010d57600080fd5b50610116610956565b6040516101239190610ded565b60405180910390f35b600060015411610171576040517f08c379a000000000000000000000000000000000000000000000000000000000815260040161016890610e54565b60405180910390fd5b600060015490508160008083815260200190815260200160002060070160006101000a81548173ffffffffffffffffffffffffffffffffffffffff021916908373ffffffffffffffffffffffffffffffffffffffff1602179055507fd7f9c4e972949a76309bff4d5ba983cfe733501e0626ac1c932c7a2c761b51f2826040516101fb9190610e74565b60405180910390a15050565b600060205280600052604060002060009150905080600001549080600101805461023090610ebe565b80601f016020809104026020016040519081016040528092919081815260200182805461025c90610ebe565b80156102a95780601f1061027e576101008083540402835291602001916102a9565b820191906000526020600020905b81548152906001019060200180831161028c57829003601f168201915b5050505050908060020180546102be90610ebe565b80601f01602080910402602001604051908101604052809291908181526020018280546102ea90610ebe565b80156103375780601f1061030c57610100808354040283529160200191610337565b820191906000526020600020905b81548152906001019060200180831161031a57829003601f168201915b50505050509080600301549080600401549080600501805461035890610ebe565b80601f016020809104026020016040519081016040528092919081815260200182805461038490610ebe565b80156103d15780601f106103a6576101008083540402835291602001916103d1565b820191906000526020600020905b8154815290600101906020018083116103b457829003601f168201915b5050505050908060060180546103e690610ebe565b80601f016020809104026020016040519081016040528092919081815260200182805461041290610ebe565b801561045f5780601f106104345761010080835404028352916020019161045f565b820191906000526020600020905b81548152906001019060200180831161044257829003601f168201915b5050505050908060070160009054906101000a900473ffffffffffffffffffffffffffffffffffffffff16905088565b6001548111156104d4576040517f08c379a00000000000000000000000000000000000000000000000000000000081526004016104cb90610f3b565b60405180910390fd5b6000806000838152602001908152602001600020905080600301543414610530576040517f08c379a000000000000000000000000000000000000000000000000000000000815260040161052790610fa7565b60405180910390fd5b600073ffffffffffffffffffffffffffffffffffffffff168160070160009054906101000a900473ffffffffffffffffffffffffffffffffffffffff1673ffffffffffffffffffffffffffffffffffffffff16036105c3576040517f08c379a00000000000000000000000000000000000000000000000000000000081526004016105ba90611013565b60405180910390fd5b3373ffffffffffffffffffffffffffffffffffffffff168160070160009054906101000a900473ffffffffffffffffffffffffffffffffffffffff1673ffffffffffffffffffffffffffffffffffffffff1603610655576040517f08c379a000000000000000000000000000000000000000000000000000000000815260040161064c9061107f565b60405180910390fd5b60008160070160009054906101000a900473ffffffffffffffffffffffffffffffffffffffff169050338260070160006101000a81548173ffffffffffffffffffffffffffffffffffffffff021916908373ffffffffffffffffffffffffffffffffffffffff1602179055508073ffffffffffffffffffffffffffffffffffffffff166108fc349081150290604051600060405180830381858888f19350505050158015610707573d6000803e3d6000fd5b507fce37d752bfa13533746ae4d06adafcaa4cb51e67bc62f7747e62f4d28acf67ac8333838560030154604051610741949392919061109f565b60405180910390a17fd7f9c4e972949a76309bff4d5ba983cfe733501e0626ac1c932c7a2c761b51f2336040516107789190610e74565b60405180910390a1505050565b600084116107c8576040517f08c379a00000000000000000000000000000000000000000000000000000000081526004016107bf90611130565b60405180910390fd5b600160008154809291906107db9061117f565b919050555060405180610100016040528060015481526020018881526020018781526020018681526020018581526020018481526020018381526020018273ffffffffffffffffffffffffffffffffffffffff1681525060008060015481526020019081526020016000206000820151816000015560208201518160010190816108659190611373565b50604082015181600201908161087b9190611373565b50606082015181600301556080820151816004015560a08201518160050190816108a59190611373565b5060c08201518160060190816108bb9190611373565b5060e08201518160070160006101000a81548173ffffffffffffffffffffffffffffffffffffffff021916908373ffffffffffffffffffffffffffffffffffffffff1602179055509050507f54cd998c7e59885e7c119922131550e165d7724515b7eef9a4d825a123d7dda260015488888888888888604051610945989796959493929190610b0c565b60405180910390a150505050505050565b60015481565b6000604051905090565b600080fd5b600080fd5b600073ffffffffffffffffffffffffffffffffffffffff82169050919050565b600061099b82610970565b9050919050565b6109ab81610990565b81146109b657600080fd5b50565b6000813590506109c8816109a2565b92915050565b6000602082840312156109e4576109e3610966565b5b60006109f2848285016109b9565b91505092915050565b6000819050919050565b610a0e816109fb565b8114610a1957600080fd5b50565b600081359050610a2b81610a05565b92915050565b600060208284031215610a4757610a46610966565b5b6000610a5584828501610a1c565b91505092915050565b610a67816109fb565b82525050565b600081519050919050565b600082825260208201905092915050565b60005b83811015610aa7578082015181840152602081019050610a8c565b60008484015250505050565b6000601f19601f8301169050919050565b6000610acf82610a6d565b610ad98185610a78565b9350610ae9818560208601610a89565b610af281610ab3565b840191505092915050565b610b0681610990565b82525050565b600061010082019050610b22600083018b610a5e565b8181036020830152610b34818a610ac4565b90508181036040830152610b488189610ac4565b9050610b576060830188610a5e565b610b646080830187610a5e565b81810360a0830152610b768186610ac4565b905081810360c0830152610b8a8185610ac4565b9050610b9960e0830184610afd565b9998505050505050505050565b600080fd5b600080fd5b7f4e487b7100000000000000000000000000000000000000000000000000000000600052604160045260246000fd5b610be882610ab3565b810181811067ffffffffffffffff82111715610c0757610c06610bb0565b5b80604052505050565b6000610c1a61095c565b9050610c268282610bdf565b919050565b600067ffffffffffffffff821115610c4657610c45610bb0565b5b610c4f82610ab3565b9050602081019050919050565b82818337600083830152505050565b6000610c7e610c7984610c2b565b610c10565b905082815260208101848484011115610c9a57610c99610bab565b5b610ca5848285610c5c565b509392505050565b600082601f830112610cc257610cc1610ba6565b5b8135610cd2848260208601610c6b565b91505092915050565b600080600080600080600060e0888a031215610cfa57610cf9610966565b5b600088013567ffffffffffffffff811115610d1857610d1761096b565b5b610d248a828b01610cad565b975050602088013567ffffffffffffffff811115610d4557610d4461096b565b5b610d518a828b01610cad565b9650506040610d628a828b01610a1c565b9550506060610d738a828b01610a1c565b945050608088013567ffffffffffffffff811115610d9457610d9361096b565b5b610da08a828b01610cad565b93505060a088013567ffffffffffffffff811115610dc157610dc061096b565b5b610dcd8a828b01610cad565b92505060c0610dde8a828b016109b9565b91505092959891949750929550565b6000602082019050610e026000830184610a5e565b92915050565b7f4e6f2070726f647563747320617661696c61626c650000000000000000000000600082015250565b6000610e3e601583610a78565b9150610e4982610e08565b602082019050919050565b60006020820190508181036000830152610e6d81610e31565b9050919050565b6000602082019050610e896000830184610afd565b92915050565b7f4e487b7100000000000000000000000000000000000000000000000000000000600052602260045260246000fd5b60006002820490506001821680610ed657607f821691505b602082108103610ee957610ee8610e8f565b5b50919050565b7f50726f6475637420646f6573206e6f7420657869737400000000000000000000600082015250565b6000610f25601683610a78565b9150610f3082610eef565b602082019050919050565b60006020820190508181036000830152610f5481610f18565b9050919050565b7f496e636f72726563742076616c75652073656e74000000000000000000000000600082015250565b6000610f91601483610a78565b9150610f9c82610f5b565b602082019050919050565b60006020820190508181036000830152610fc081610f84565b9050919050565b7f50726f6475637420686173206e6f206f776e6572000000000000000000000000600082015250565b6000610ffd601483610a78565b915061100882610fc7565b602082019050919050565b6000602082019050818103600083015261102c81610ff0565b9050919050565b7f42757965722063616e6e6f7420626520746865206f776e657200000000000000600082015250565b6000611069601983610a78565b915061107482611033565b602082019050919050565b600060208201905081810360008301526110988161105c565b9050919050565b60006080820190506110b46000830187610a5e565b6110c16020830186610afd565b6110ce6040830185610afd565b6110db6060830184610a5e565b95945050505050565b7f5765696768742063616e6e6f74206265207a65726f0000000000000000000000600082015250565b600061111a601583610a78565b9150611125826110e4565b602082019050919050565b600060208201905081810360008301526111498161110d565b9050919050565b7f4e487b7100000000000000000000000000000000000000000000000000000000600052601160045260246000fd5b600061118a826109fb565b91507fffffffffffffffffffffffffffffffffffffffffffffffffffffffffffffffff82036111bc576111bb611150565b5b600182019050919050565b60008190508160005260206000209050919050565b60006020601f8301049050919050565b600082821b905092915050565b6000600883026112297fffffffffffffffffffffffffffffffffffffffffffffffffffffffffffffffff826111ec565b61123386836111ec565b95508019841693508086168417925050509392505050565b6000819050919050565b600061127061126b611266846109fb565b61124b565b6109fb565b9050919050565b6000819050919050565b61128a83611255565b61129e61129682611277565b8484546111f9565b825550505050565b600090565b6112b36112a6565b6112be818484611281565b505050565b5b818110156112e2576112d76000826112ab565b6001810190506112c4565b5050565b601f821115611327576112f8816111c7565b611301846111dc565b81016020851015611310578190505b61132461131c856111dc565b8301826112c3565b50505b505050565b600082821c905092915050565b600061134a6000198460080261132c565b1980831691505092915050565b60006113638383611339565b9150826002028217905092915050565b61137c82610a6d565b67ffffffffffffffff81111561139557611394610bb0565b5b61139f8254610ebe565b6113aa8282856112e6565b600060209050601f8311600181146113dd57600084156113cb578287015190505b6113d58582611357565b86555061143d565b601f1984166113eb866111c7565b60005b82811015611413578489015182556001820191506020850194506020810190506113ee565b86831015611430578489015161142c601f891682611339565b8355505b6001600288020188555050505b50505050505056fea2646970667358221220101eb4300701109c34e26cdec9d2ea059e9f87ff2f12900458d09fc952fcf6fb64736f6c63430008120033",
  "immutableReferences": {},
  "source": "// SPDX-License-Identifier: MIT\r\npragma solidity ^0.8.0;\r\n\r\ncontract FarmProductTracking {\r\n    struct Product {\r\n        uint256 productId;\r\n        string name;\r\n        string description;\r\n        uint256 price;\r\n        uint256 weight;\r\n        string category;\r\n        string subCategory;\r\n        address owner;\r\n    }\r\n\r\n    mapping(uint256 => Product) public products;\r\n    uint256 public productCount;\r\n\r\n    event ProductAdded(\r\n        uint256 productId,\r\n        string name,\r\n        string description,\r\n        uint256 price,\r\n        uint256 weight,\r\n        string category,\r\n        string subCategory,\r\n        address owner\r\n    );\r\n\r\n    event PreviousStakeholderUpdated(address newStakeholder);\r\n\r\n    event ProductBought(uint256 productId, address buyer, address seller, uint256 price);\r\n\r\n    function addProduct(\r\n        string memory _name,\r\n        string memory _description,\r\n        uint256 _price,\r\n        uint256 _weight,\r\n        string memory _category,\r\n        string memory _subCategory,\r\n        address _owner\r\n    ) external {\r\n        require(_weight > 0, \"Weight cannot be zero\");\r\n        productCount++;\r\n        products[productCount] = Product(\r\n            productCount,\r\n            _name,\r\n            _description,\r\n            _price,\r\n            _weight,\r\n            _category,\r\n            _subCategory,\r\n            _owner\r\n        );\r\n        emit ProductAdded(\r\n            productCount,\r\n            _name,\r\n            _description,\r\n            _price,\r\n            _weight,\r\n            _category,\r\n            _subCategory,\r\n            _owner\r\n        );\r\n    }\r\n\r\n    function updatePreviousStakeholder(address _newStakeholder) external {\r\n    require(productCount > 0, \"No products available\");\r\n    uint256 _productId = productCount;\r\n    products[_productId].owner = _newStakeholder;\r\n    emit PreviousStakeholderUpdated( _newStakeholder);\r\n}\r\n\r\n\r\n    function buyProduct(uint256 _productId) external payable {\r\n        require(_productId <= productCount, \"Product does not exist\");\r\n        Product storage product = products[_productId];\r\n        require(msg.value == product.price, \"Incorrect value sent\");\r\n        require(product.owner != address(0), \"Product has no owner\");\r\n        require(product.owner != msg.sender, \"Buyer cannot be the owner\");\r\n\r\n        address seller = product.owner;\r\n        product.owner = msg.sender;\r\n\r\n        payable(seller).transfer(msg.value);\r\n\r\n        emit ProductBought(_productId, msg.sender, seller, product.price);\r\n        emit PreviousStakeholderUpdated( msg.sender);\r\n    }\r\n}\r\n\r\n\r\n\r\n\r\n// pragma solidity ^0.8.0;\r\n\r\n// contract FarmProductTracking {\r\n//     struct Product {\r\n//         uint256 productId;\r\n//         string name;\r\n//         string description;\r\n//         uint256 price;\r\n//         uint256 weight;\r\n//         string category;\r\n//         string subCategory;\r\n//         address owner;\r\n//     }\r\n\r\n//     mapping(uint256 => Product) public products;\r\n//     uint256 public productCount;\r\n\r\n//     event ProductAdded(\r\n//         uint256 productId,\r\n//         string name,\r\n//         string description,\r\n//         uint256 price,\r\n//         uint256 weight,\r\n//         string category,\r\n//         string subCategory,\r\n//         address owner\r\n//     );\r\n\r\n//     event ProductBought(uint256 productId, address buyer, address seller, uint256 price);\r\n\r\n//     function addProduct(\r\n//         string memory _name,\r\n//         string memory _description,\r\n//         uint256 _price,\r\n//         uint256 _weight,\r\n//         string memory _category,\r\n//         string memory _subCategory,\r\n//         address _owner\r\n//     ) external {\r\n//         require(_weight > 0, \"Weight cannot be zero\");\r\n//         productCount++;\r\n//         products[productCount] = Product(\r\n//             productCount,\r\n//             _name,\r\n//             _description,\r\n//             _price,\r\n//             _weight,\r\n//             _category,\r\n//             _subCategory,\r\n//             _owner\r\n//         );\r\n//         emit ProductAdded(\r\n//             productCount,\r\n//             _name,\r\n//             _description,\r\n//             _price,\r\n//             _weight,\r\n//             _category,\r\n//             _subCategory,\r\n//             _owner\r\n//         );\r\n//     }\r\n\r\n//     function buyProduct(uint256 _productId) external payable {\r\n//         require(_productId <= productCount, \"Product does not exist\");\r\n//         Product storage product = products[_productId];\r\n//         require(msg.value == product.price, \"Incorrect value sent\");\r\n//         require(product.owner != address(0), \"Product has no owner\");\r\n//         require(product.owner != msg.sender, \"Buyer cannot be the owner\");\r\n\r\n//         address seller = product.owner;\r\n//         product.owner = msg.sender;\r\n\r\n//         payable(seller).transfer(msg.value);\r\n\r\n//         emit ProductBought(_productId, msg.sender, seller, product.price);\r\n//     }\r\n// }",
  "sourcePath": "E:\\Blockchain project folder\\truffle\\contracts\\Doc.sol",
  "compiler": {
    "name": "solc",
    "version": "0.8.18+commit.87f61d96.Emscripten.clang"
  },
  "schemaVersion": "3.4.16",
  "updatedAt": "2024-11-27T17:34:38.819Z",
  "devdoc": {
    "kind": "dev",
    "methods": {},
    "version": 1
  },
  "userdoc": {
    "kind": "user",
    "methods": {},
    "version": 1
  }
}